{
  "contractName": "Payment",
  "abi": [
    {
      "inputs": [
        {
          "internalType": "uint256",
          "name": "",
          "type": "uint256"
        },
        {
          "internalType": "uint256",
          "name": "",
          "type": "uint256"
        },
        {
          "internalType": "uint256",
          "name": "",
          "type": "uint256"
        }
      ],
      "name": "edges",
      "outputs": [
        {
          "internalType": "uint256",
          "name": "",
          "type": "uint256"
        }
      ],
      "stateMutability": "view",
      "type": "function"
    },
    {
      "inputs": [
        {
          "internalType": "uint256",
          "name": "",
          "type": "uint256"
        }
      ],
      "name": "prev",
      "outputs": [
        {
          "internalType": "uint256",
          "name": "",
          "type": "uint256"
        }
      ],
      "stateMutability": "view",
      "type": "function"
    },
    {
      "inputs": [
        {
          "internalType": "uint256",
          "name": "",
          "type": "uint256"
        }
      ],
      "name": "visited",
      "outputs": [
        {
          "internalType": "bool",
          "name": "",
          "type": "bool"
        }
      ],
      "stateMutability": "view",
      "type": "function"
    },
    {
      "inputs": [
        {
          "internalType": "uint256",
          "name": "user_id",
          "type": "uint256"
        },
        {
          "internalType": "string",
          "name": "user_name",
          "type": "string"
        }
      ],
      "name": "registerUser",
      "outputs": [
        {
          "internalType": "uint256",
          "name": "",
          "type": "uint256"
        }
      ],
      "stateMutability": "nonpayable",
      "type": "function"
    },
    {
      "inputs": [],
      "name": "registerUser1",
      "outputs": [
        {
          "internalType": "uint256",
          "name": "",
          "type": "uint256"
        }
      ],
      "stateMutability": "view",
      "type": "function"
    },
    {
      "inputs": [
        {
          "internalType": "uint256",
          "name": "user_id_1",
          "type": "uint256"
        },
        {
          "internalType": "uint256",
          "name": "user_id_2",
          "type": "uint256"
        },
        {
          "internalType": "uint256",
          "name": "init_bal",
          "type": "uint256"
        }
      ],
      "name": "createAcc",
      "outputs": [],
      "stateMutability": "nonpayable",
      "type": "function"
    },
    {
      "inputs": [
        {
          "internalType": "uint256",
          "name": "user_id_1",
          "type": "uint256"
        },
        {
          "internalType": "uint256",
          "name": "user_id_2",
          "type": "uint256"
        }
      ],
      "name": "sendAmount",
      "outputs": [
        {
          "internalType": "bool",
          "name": "",
          "type": "bool"
        }
      ],
      "stateMutability": "nonpayable",
      "type": "function"
    },
    {
      "inputs": [],
      "name": "sendAmount1",
      "outputs": [
        {
          "internalType": "bool",
          "name": "",
          "type": "bool"
        }
      ],
      "stateMutability": "view",
      "type": "function"
    },
    {
      "inputs": [
        {
          "internalType": "uint256",
          "name": "user_id_1",
          "type": "uint256"
        },
        {
          "internalType": "uint256",
          "name": "user_id_2",
          "type": "uint256"
        }
      ],
      "name": "closeAccount",
      "outputs": [],
      "stateMutability": "nonpayable",
      "type": "function"
    }
  ],
  "bytecode": "0x608060405234801561001057600080fd5b506114ff806100206000396000f3fe608060405234801561001057600080fd5b50600436106100935760003560e01c8063370fa96811610066578063370fa968146101345780635db9506e146101645780638bef55a814610194578063b5483481146101c4578063bd45d6eb146101e057610093565b80631c57333e146100985780631cbc1e1f146100c857806324a23ded146100e65780633567121414610104575b600080fd5b6100b260048036038101906100ad9190610f56565b6101fc565b6040516100bf9190610fc1565b60405180910390f35b6100d061026d565b6040516100dd9190610fc1565b60405180910390f35b6100ee610279565b6040516100fb9190610ff7565b60405180910390f35b61011e60048036038101906101199190611012565b610290565b60405161012b9190610fc1565b60405180910390f35b61014e60048036038101906101499190611012565b6102a8565b60405161015b9190610ff7565b60405180910390f35b61017e6004803603810190610179919061103f565b6102c8565b60405161018b9190610ff7565b60405180910390f35b6101ae60048036038101906101a9919061107f565b610aa0565b6040516101bb9190610fc1565b60405180910390f35b6101de60048036038101906101d9919061107f565b610aea565b005b6101fa60048036038101906101f5919061103f565b610ba7565b005b600080604051806040016040528085815260200184815250908060018154018082558091505060019003906000526020600020906002020160009091909190915060008201518160000155602082015181600101908161025c91906112e9565b505050600080549050905092915050565b60008080549050905090565b6000600160009054906101000a900460ff16905090565b60046020528060005260406000206000915090505481565b60036020528060005260406000206000915054906101000a900460ff1681565b600080600090505b600080549050811015610340576000600360008084815481106102f6576102f56113bb565b5b906000526020600020906002020160000154815260200190815260200160002060006101000a81548160ff021916908315150217905550808061033890611419565b9150506102d0565b506000808054905067ffffffffffffffff81111561036157610360610e2b565b5b60405190808252806020026020018201604052801561038f5781602001602082028036833780820191505090505b509050600080858382806103a290611419565b9350815181106103b5576103b46113bb565b5b60200260200101818152505060016003600088815260200190815260200160002060006101000a81548160ff0219169083151502179055508560046000888152602001908152602001600020819055505b80821015610a7757600083838061041c90611419565b94508151811061042f5761042e6113bb565b5b6020026020010151905060005b6002600083815260200190815260200160002080549050811015610a705760036000600260008581526020019081526020016000208381548110610483576104826113bb565b5b906000526020600020016000815481106104a05761049f6113bb565b5b9060005260206000200154815260200190815260200160002060009054906101000a900460ff16610a5d576001600360006002600086815260200190815260200160002084815481106104f6576104f56113bb565b5b90600052602060002001600081548110610513576105126113bb565b5b9060005260206000200154815260200190815260200160002060006101000a81548160ff021916908315150217905550816004600060026000868152602001908152602001600020848154811061056d5761056c6113bb565b5b9060005260206000200160008154811061058a576105896113bb565b5b9060005260206000200154815260200190815260200160002081905550866002600084815260200190815260200160002082815481106105cd576105cc6113bb565b5b906000526020600020016000815481106105ea576105e96113bb565b5b9060005260206000200154036109e45760008790505b8881146107675760005b600260006004600085815260200190815260200160002054815260200190815260200160002080549050811015610761578160026000600460008681526020019081526020016000205481526020019081526020016000208281548110610674576106736113bb565b5b90600052602060002001600081548110610691576106906113bb565b5b906000526020600020015403610738576000600260006004600086815260200190815260200160002054815260200190815260200160002082815481106106db576106da6113bb565b5b906000526020600020016001815481106106f8576106f76113bb565b5b906000526020600020015403610733576000600160006101000a81548160ff0219169083151502179055506000975050505050505050610a9a565b610761565b60046000838152602001908152602001600020549150808061075990611419565b91505061060a565b50610600565b8790505b8881146109bb5760005b60026000600460008581526020019081526020016000205481526020019081526020016000208054905081101561089b5781600260006004600086815260200190815260200160002054815260200190815260200160002082815481106107df576107de6113bb565b5b906000526020600020016000815481106107fc576107fb6113bb565b5b90600052602060002001540361088857600160026000600460008681526020019081526020016000205481526020019081526020016000208281548110610846576108456113bb565b5b90600052602060002001600181548110610863576108626113bb565b5b90600052602060002001600082825461087c9190611461565b9250508190555061089b565b808061089390611419565b915050610775565b5060005b600260008381526020019081526020016000208054905081101561099f5760046000838152602001908152602001600020546002600084815260200190815260200160002082815481106108f6576108f56113bb565b5b90600052602060002001600081548110610913576109126113bb565b5b90600052602060002001540361098c57600160026000848152602001908152602001600020828154811061094a576109496113bb565b5b90600052602060002001600181548110610967576109666113bb565b5b9060005260206000200160008282546109809190611495565b9250508190555061099f565b808061099790611419565b91505061089f565b506004600082815260200190815260200160002054905061076b565b60018060006101000a81548160ff02191690831515021790555060019650505050505050610a9a565b600260008381526020019081526020016000208181548110610a0957610a086113bb565b5b90600052602060002001600081548110610a2657610a256113bb565b5b9060005260206000200154858480610a3d90611419565b955081518110610a5057610a4f6113bb565b5b6020026020010181815250505b8080610a6890611419565b91505061043c565b5050610406565b6000600160006101000a81548160ff021916908315150217905550600093505050505b92915050565b60026020528260005260406000208281548110610abc57600080fd5b906000526020600020018181548110610ad457600080fd5b9060005260206000200160009250925050505481565b6002600084815260200190815260200160002060405180604001604052808481526020018381525090806001815401808255809150506001900390600052602060002001600090919091909150906002610b45929190610d3b565b506002600083815260200190815260200160002060405180604001604052808581526020018381525090806001815401808255809150506001900390600052602060002001600090919091909150906002610ba1929190610d3b565b50505050565b60005b6002600084815260200190815260200160002080549050811015610c6e5781600260008581526020019081526020016000208281548110610bee57610bed6113bb565b5b90600052602060002001600081548110610c0b57610c0a6113bb565b5b906000526020600020015403610c5b57600260008481526020019081526020016000208181548110610c4057610c3f6113bb565b5b906000526020600020016000610c569190610d88565b610c6e565b8080610c6690611419565b915050610baa565b5060005b6002600083815260200190815260200160002080549050811015610d365782600260008481526020019081526020016000208281548110610cb657610cb56113bb565b5b90600052602060002001600081548110610cd357610cd26113bb565b5b906000526020600020015403610d2357600260008381526020019081526020016000208181548110610d0857610d076113bb565b5b906000526020600020016000610d1e9190610d88565b610d36565b8080610d2e90611419565b915050610c72565b505050565b828054828255906000526020600020908101928215610d77579160200282015b82811115610d76578251825591602001919060010190610d5b565b5b509050610d849190610da9565b5090565b5080546000825590600052602060002090810190610da69190610da9565b50565b5b80821115610dc2576000816000905550600101610daa565b5090565b6000604051905090565b600080fd5b600080fd5b6000819050919050565b610ded81610dda565b8114610df857600080fd5b50565b600081359050610e0a81610de4565b92915050565b600080fd5b600080fd5b6000601f19601f8301169050919050565b7f4e487b7100000000000000000000000000000000000000000000000000000000600052604160045260246000fd5b610e6382610e1a565b810181811067ffffffffffffffff82111715610e8257610e81610e2b565b5b80604052505050565b6000610e95610dc6565b9050610ea18282610e5a565b919050565b600067ffffffffffffffff821115610ec157610ec0610e2b565b5b610eca82610e1a565b9050602081019050919050565b82818337600083830152505050565b6000610ef9610ef484610ea6565b610e8b565b905082815260208101848484011115610f1557610f14610e15565b5b610f20848285610ed7565b509392505050565b600082601f830112610f3d57610f3c610e10565b5b8135610f4d848260208601610ee6565b91505092915050565b60008060408385031215610f6d57610f6c610dd0565b5b6000610f7b85828601610dfb565b925050602083013567ffffffffffffffff811115610f9c57610f9b610dd5565b5b610fa885828601610f28565b9150509250929050565b610fbb81610dda565b82525050565b6000602082019050610fd66000830184610fb2565b92915050565b60008115159050919050565b610ff181610fdc565b82525050565b600060208201905061100c6000830184610fe8565b92915050565b60006020828403121561102857611027610dd0565b5b600061103684828501610dfb565b91505092915050565b6000806040838503121561105657611055610dd0565b5b600061106485828601610dfb565b925050602061107585828601610dfb565b9150509250929050565b60008060006060848603121561109857611097610dd0565b5b60006110a686828701610dfb565b93505060206110b786828701610dfb565b92505060406110c886828701610dfb565b9150509250925092565b600081519050919050565b7f4e487b7100000000000000000000000000000000000000000000000000000000600052602260045260246000fd5b6000600282049050600182168061112457607f821691505b602082108103611137576111366110dd565b5b50919050565b60008190508160005260206000209050919050565b60006020601f8301049050919050565b600082821b905092915050565b60006008830261119f7fffffffffffffffffffffffffffffffffffffffffffffffffffffffffffffffff82611162565b6111a98683611162565b95508019841693508086168417925050509392505050565b6000819050919050565b60006111e66111e16111dc84610dda565b6111c1565b610dda565b9050919050565b6000819050919050565b611200836111cb565b61121461120c826111ed565b84845461116f565b825550505050565b600090565b61122961121c565b6112348184846111f7565b505050565b5b818110156112585761124d600082611221565b60018101905061123a565b5050565b601f82111561129d5761126e8161113d565b61127784611152565b81016020851015611286578190505b61129a61129285611152565b830182611239565b50505b505050565b600082821c905092915050565b60006112c0600019846008026112a2565b1980831691505092915050565b60006112d983836112af565b9150826002028217905092915050565b6112f2826110d2565b67ffffffffffffffff81111561130b5761130a610e2b565b5b611315825461110c565b61132082828561125c565b600060209050601f8311600181146113535760008415611341578287015190505b61134b85826112cd565b8655506113b3565b601f1984166113618661113d565b60005b8281101561138957848901518255600182019150602085019450602081019050611364565b868310156113a657848901516113a2601f8916826112af565b8355505b6001600288020188555050505b505050505050565b7f4e487b7100000000000000000000000000000000000000000000000000000000600052603260045260246000fd5b7f4e487b7100000000000000000000000000000000000000000000000000000000600052601160045260246000fd5b600061142482610dda565b91507fffffffffffffffffffffffffffffffffffffffffffffffffffffffffffffffff8203611456576114556113ea565b5b600182019050919050565b600061146c82610dda565b915061147783610dda565b925082820390508181111561148f5761148e6113ea565b5b92915050565b60006114a082610dda565b91506114ab83610dda565b92508282019050808211156114c3576114c26113ea565b5b9291505056fea26469706673582212205ca4d12c49613e9d4808a793d0c73078c7c7f7b366927456471e6960d55ea44e64736f6c63430008130033",
  "immutableReferences": {},
  "source": "// SPDX-License-Identifier: MIT\npragma solidity >=0.4.22 <0.9.0;\n\ncontract Payment {\n    // contract variables\n  struct User {\n    // struct to store user details\n    uint id;\n    string name;\n  }\n\n  User [] users_list;\n\n  bool last_transaction;\n\n  mapping (uint => uint[][]) public edges;\n\n  function registerUser (uint user_id, string memory user_name) public returns (uint) {\n    // function to register a user\n    users_list.push(User(user_id, user_name));\n\n    return users_list.length;\n  } \n\n   function registerUser1 () public view returns (uint) {\n    // function to check the length of the users_list\n    return users_list.length;\n  } \n\n  \n\n  function createAcc(uint user_id_1, uint user_id_2, uint init_bal) public {\n    // function to create an account between two users\n    edges[user_id_1].push([user_id_2, init_bal]);\n    edges[user_id_2].push([user_id_1, init_bal]);\n  }\n\n  mapping (uint => bool) public visited;\n  mapping (uint => uint) public prev;\n\n  // function dfsUtil(uint user_id_1, uint user_id_2, uint amount) private returns (bool) {\n  //   visited[user_id_1] = true;\n  //   if (user_id_1 == user_id_2) {\n  //       return true;\n  //   }\n  //   for (uint i = 0; i < edges[user_id_1].length; i++) {\n  //       if (!visited[edges[user_id_1][i][0]]) {\n  //           if (dfsUtil(edges[user_id_1][i][0], user_id_2, amount)) {\n  //               if(edges[user_id_1][i][1] >= amount)  return true;\n  //           }\n  //       }\n  //   }\n  //   return false;\n  // }\n\n  // function dfsSend( uint user_id_1, uint user_id_2, uint amount) private returns (bool) {\n  //   visited[user_id_1] = true;\n  //   if (user_id_1 == user_id_2) {\n  //       return true;\n  //   }\n  //   for (uint i = 0; i < edges[user_id_1].length; i++) {\n  //       if (!visited[edges[user_id_1][i][0]]) {\n  //           if (edges[user_id_1][i][1] >= amount && dfsUtil(edges[user_id_1][i][0], user_id_2, amount)) {\n  //                   edges[user_id_1][i][1] -= amount;\n  //                   for (uint j = 0; j < edges[user_id_2].length; j++) {\n  //                       if (edges[user_id_2][j][0] == user_id_1) {\n  //                           edges[user_id_2][j][1] += amount;\n  //                           break;\n  //                       }\n  //                   }\n  //                   return true;\n  //               }\n  //           }\n  //       }\n  //   return false;\n  // }\n\n  // function sendAmount(uint user_id_1, uint user_id_2, uint amount) public returns (bool) {\n  //   for(uint i = 0; i < users_list.length; i++) {\n  //       visited[users_list[i].id] = false;\n  //   }\n  //   if (dfsUtil(user_id_1, user_id_2, amount)) {\n  //     for(uint i = 0; i < users_list.length; i++) {\n  //         visited[users_list[i].id] = false;\n  //     }\n  //     dfsSend(user_id_1, user_id_2, amount);\n  //     last_transaction = true;\n  //     return true;      \n  //   }\n  //   last_transaction = false;\n  //   return false;\n  // }\n\n  function sendAmount(uint user_id_1, uint user_id_2) public returns (bool) {\n    // function to send amount from one user to another\n    // bfs\n    for(uint i = 0; i < users_list.length; i++) {\n        visited[users_list[i].id] = false;\n    }\n    //bfs\n    uint[] memory queue = new uint[](users_list.length);\n    uint front = 0;\n    uint rear = 0;\n    queue[rear++] = user_id_1;\n    visited[user_id_1] = true;\n    prev[user_id_1] = user_id_1;\n    while (front < rear) {\n        uint curr = queue[front++];\n        for (uint i = 0; i < edges[curr].length; i++) {\n            if (!visited[edges[curr][i][0]]) {\n                visited[edges[curr][i][0]] = true;\n                prev[edges[curr][i][0]] = curr;\n                if(edges[curr][i][0] == user_id_2) {\n                    uint curr1 = user_id_2;\n                    while (curr1 != user_id_1) {\n                        for (uint j = 0; j < edges[prev[curr1]].length; j++) {\n                            if (edges[prev[curr1]][j][0] == curr1) {\n                                if(edges[prev[curr1]][j][1]==0){\n                                  last_transaction = false;\n                                  return false;\n                                }\n                                break;\n                            }\n                        curr1 = prev[curr1];\n                        }\n                    }\n                    curr1 = user_id_2;\n                    while (curr1 != user_id_1) {\n                        for (uint j = 0; j < edges[prev[curr1]].length; j++) {\n                            if (edges[prev[curr1]][j][0] == curr1) {\n                                edges[prev[curr1]][j][1] -= 1;\n                                break;\n                            }\n                        }\n                        for (uint j = 0; j < edges[curr1].length; j++) {\n                            if (edges[curr1][j][0] == prev[curr1]) {\n                                edges[curr1][j][1] += 1;\n                                break;\n                            }\n                        }\n                        curr1 = prev[curr1];\n                    }\n                    last_transaction = true;\n                    return true;\n                    }\n                queue[rear++] = edges[curr][i][0];\n            }\n        }\n    }\n    last_transaction = false;\n    return false;\n  }\n\n  function sendAmount1() public view returns (bool){\n    // function to check if last transaction was successful or not\n    return last_transaction;\n  }\n\n\n  function closeAccount(uint user_id_1, uint user_id_2) public {\n    // function to close account of user_id_1 \n      for (uint i = 0; i < edges[user_id_1].length; i++) {\n          if (edges[user_id_1][i][0] == user_id_2) {\n              delete edges[user_id_1][i];\n              break;\n          }\n      }\n      for (uint i = 0; i < edges[user_id_2].length; i++) {\n          if (edges[user_id_2][i][0] == user_id_1) {\n              delete edges[user_id_2][i];\n              break;\n          }\n      }\n  }\n}\n",
  "sourcePath": "C:\\Users\\aksha\\Downloads\\HW3\\HW3\\contracts\\Payment.sol",
  "compiler": {
    "name": "solc",
    "version": "0.8.19+commit.7dd6d404.Emscripten.clang"
  },
  "schemaVersion": "3.4.13",
  "updatedAt": "2023-04-16T18:09:17.251Z",
  "devdoc": {
    "kind": "dev",
    "methods": {},
    "version": 1
  },
  "userdoc": {
    "kind": "user",
    "methods": {},
    "version": 1
  }
}